{
  "contractName": "Review",
  "abi": [
    {
      "inputs": [
        {
          "internalType": "uint256",
          "name": "",
          "type": "uint256"
        }
      ],
      "name": "allProducts",
      "outputs": [
        {
          "internalType": "string",
          "name": "title",
          "type": "string"
        },
        {
          "internalType": "string",
          "name": "category",
          "type": "string"
        },
        {
          "internalType": "string",
          "name": "platform",
          "type": "string"
        },
        {
          "internalType": "string",
          "name": "link",
          "type": "string"
        },
        {
          "internalType": "string",
          "name": "description",
          "type": "string"
        },
        {
          "internalType": "uint256",
          "name": "id",
          "type": "uint256"
        },
        {
          "internalType": "address",
          "name": "listedBy",
          "type": "address"
        },
        {
          "internalType": "uint256",
          "name": "reviewCount",
          "type": "uint256"
        }
      ],
      "stateMutability": "view",
      "type": "function",
      "constant": true
    },
    {
      "inputs": [
        {
          "internalType": "uint256",
          "name": "",
          "type": "uint256"
        }
      ],
      "name": "allReviews",
      "outputs": [
        {
          "internalType": "uint256",
          "name": "id",
          "type": "uint256"
        },
        {
          "internalType": "string",
          "name": "content",
          "type": "string"
        },
        {
          "internalType": "uint256",
          "name": "productId",
          "type": "uint256"
        },
        {
          "internalType": "address payable",
          "name": "reviewedBy",
          "type": "address"
        }
      ],
      "stateMutability": "view",
      "type": "function",
      "constant": true
    },
    {
      "inputs": [
        {
          "internalType": "uint256",
          "name": "",
          "type": "uint256"
        }
      ],
      "name": "allUsers",
      "outputs": [
        {
          "internalType": "uint256",
          "name": "id",
          "type": "uint256"
        },
        {
          "internalType": "string",
          "name": "name",
          "type": "string"
        },
        {
          "internalType": "string",
          "name": "password",
          "type": "string"
        },
        {
          "internalType": "string",
          "name": "amazonUsername",
          "type": "string"
        },
        {
          "internalType": "string",
          "name": "flipkartUsername",
          "type": "string"
        },
        {
          "internalType": "address",
          "name": "userAddress",
          "type": "address"
        }
      ],
      "stateMutability": "view",
      "type": "function",
      "constant": true
    },
    {
      "inputs": [
        {
          "internalType": "string",
          "name": "_name",
          "type": "string"
        },
        {
          "internalType": "string",
          "name": "_password",
          "type": "string"
        },
        {
          "internalType": "string",
          "name": "_amazonUsername",
          "type": "string"
        },
        {
          "internalType": "string",
          "name": "_flipkartUsername",
          "type": "string"
        }
      ],
      "name": "addUser",
      "outputs": [],
      "stateMutability": "nonpayable",
      "type": "function"
    },
    {
      "inputs": [
        {
          "internalType": "uint256",
          "name": "_productId",
          "type": "uint256"
        },
        {
          "internalType": "string",
          "name": "_description",
          "type": "string"
        },
        {
          "internalType": "string[3]",
          "name": "_imageHash",
          "type": "string[3]"
        }
      ],
      "name": "addReview",
      "outputs": [],
      "stateMutability": "nonpayable",
      "type": "function"
    },
    {
      "inputs": [
        {
          "internalType": "string",
          "name": "_title",
          "type": "string"
        },
        {
          "internalType": "string",
          "name": "_category",
          "type": "string"
        },
        {
          "internalType": "string",
          "name": "_platform",
          "type": "string"
        },
        {
          "internalType": "string",
          "name": "_link",
          "type": "string"
        },
        {
          "internalType": "string",
          "name": "_description",
          "type": "string"
        }
      ],
      "name": "addProduct",
      "outputs": [],
      "stateMutability": "nonpayable",
      "type": "function"
    },
    {
      "inputs": [],
      "name": "getAllUsers",
      "outputs": [
        {
          "components": [
            {
              "internalType": "uint256",
              "name": "id",
              "type": "uint256"
            },
            {
              "internalType": "string",
              "name": "name",
              "type": "string"
            },
            {
              "internalType": "string",
              "name": "password",
              "type": "string"
            },
            {
              "internalType": "string",
              "name": "amazonUsername",
              "type": "string"
            },
            {
              "internalType": "string",
              "name": "flipkartUsername",
              "type": "string"
            },
            {
              "internalType": "address",
              "name": "userAddress",
              "type": "address"
            }
          ],
          "internalType": "struct Review.User_[]",
          "name": "",
          "type": "tuple[]"
        }
      ],
      "stateMutability": "view",
      "type": "function",
      "constant": true
    },
    {
      "inputs": [],
      "name": "getAllReviews",
      "outputs": [
        {
          "components": [
            {
              "internalType": "uint256",
              "name": "id",
              "type": "uint256"
            },
            {
              "internalType": "string",
              "name": "content",
              "type": "string"
            },
            {
              "internalType": "uint256",
              "name": "productId",
              "type": "uint256"
            },
            {
              "internalType": "address payable",
              "name": "reviewedBy",
              "type": "address"
            },
            {
              "internalType": "string[3]",
              "name": "imageHash",
              "type": "string[3]"
            }
          ],
          "internalType": "struct Review.Review_[]",
          "name": "",
          "type": "tuple[]"
        }
      ],
      "stateMutability": "view",
      "type": "function",
      "constant": true
    },
    {
      "inputs": [],
      "name": "getAllProducts",
      "outputs": [
        {
          "components": [
            {
              "internalType": "string",
              "name": "title",
              "type": "string"
            },
            {
              "internalType": "string",
              "name": "category",
              "type": "string"
            },
            {
              "internalType": "string",
              "name": "platform",
              "type": "string"
            },
            {
              "internalType": "string",
              "name": "link",
              "type": "string"
            },
            {
              "internalType": "string",
              "name": "description",
              "type": "string"
            },
            {
              "internalType": "uint256",
              "name": "id",
              "type": "uint256"
            },
            {
              "internalType": "address",
              "name": "listedBy",
              "type": "address"
            },
            {
              "internalType": "uint256",
              "name": "reviewCount",
              "type": "uint256"
            }
          ],
          "internalType": "struct Review.Product_[]",
          "name": "",
          "type": "tuple[]"
        }
      ],
      "stateMutability": "view",
      "type": "function",
      "constant": true
    },
    {
      "inputs": [],
      "name": "getReviewsForUser",
      "outputs": [
        {
          "components": [
            {
              "internalType": "uint256",
              "name": "id",
              "type": "uint256"
            },
            {
              "internalType": "string",
              "name": "content",
              "type": "string"
            },
            {
              "internalType": "uint256",
              "name": "productId",
              "type": "uint256"
            },
            {
              "internalType": "address payable",
              "name": "reviewedBy",
              "type": "address"
            },
            {
              "internalType": "string[3]",
              "name": "imageHash",
              "type": "string[3]"
            }
          ],
          "internalType": "struct Review.Review_[]",
          "name": "",
          "type": "tuple[]"
        }
      ],
      "stateMutability": "view",
      "type": "function",
      "constant": true
    },
    {
      "inputs": [
        {
          "internalType": "uint256",
          "name": "productId",
          "type": "uint256"
        }
      ],
      "name": "hasAccess",
      "outputs": [
        {
          "internalType": "bool",
          "name": "",
          "type": "bool"
        }
      ],
      "stateMutability": "view",
      "type": "function",
      "constant": true
    },
    {
      "inputs": [
        {
          "internalType": "uint256",
          "name": "_productId",
          "type": "uint256"
        }
      ],
      "name": "getAccess",
      "outputs": [],
      "stateMutability": "payable",
      "type": "function",
      "payable": true
    }
  ],
  "bytecode": "0x6080604052600080556000600155600060025534801561001e57600080fd5b50612ee48061002e6000396000f3fe6080604052600436106100a75760003560e01c806345a7b01c1161006457806345a7b01c146101ad578063a2bdedf4146101d8578063cfaaef561461021a578063e2842d791461025e578063ef6da8d414610289578063ffa590ae146102b2576100a7565b806301cda3ac146100ac57806302ee3a52146100d55780631f795dbe146101005780632042763d146101295780632fc82012146101545780633132ddfe14610170575b600080fd5b3480156100b857600080fd5b506100d360048036038101906100ce9190612089565b6102f2565b005b3480156100e157600080fd5b506100ea610446565b6040516100f791906123d0565b60405180910390f35b34801561010c57600080fd5b50610127600480360381019061012291906124f2565b6107ea565b005b34801561013557600080fd5b5061013e61093e565b60405161014b9190612793565b60405180910390f35b61016e600480360381019061016991906127b5565b610e10565b005b34801561017c57600080fd5b50610197600480360381019061019291906127b5565b61100f565b6040516101a491906127fd565b60405180910390f35b3480156101b957600080fd5b506101c261108d565b6040516101cf9190612793565b60405180910390f35b3480156101e457600080fd5b506101ff60048036038101906101fa91906127b5565b6112af565b60405161021196959493929190612880565b60405180910390f35b34801561022657600080fd5b50610241600480360381019061023c91906127b5565b61153b565b6040516102559897969594939291906128fd565b60405180910390f35b34801561026a57600080fd5b5061027361185b565b6040516102809190612afe565b60405180910390f35b34801561029557600080fd5b506102b060048036038101906102ab9190612b20565b611b62565b005b3480156102be57600080fd5b506102d960048036038101906102d491906127b5565b611ced565b6040516102e99493929190612c36565b60405180910390f35b60036040518060c0016040528060005481526020018681526020018581526020018481526020018381526020013373ffffffffffffffffffffffffffffffffffffffff168152509080600181540180825580915050600190039060005260206000209060060201600090919091909150600082015181600001556020820151816001019080519060200190610388929190611dd5565b5060408201518160020190805190602001906103a5929190611dd5565b5060608201518160030190805190602001906103c2929190611dd5565b5060808201518160040190805190602001906103df929190611dd5565b5060a08201518160050160006101000a81548173ffffffffffffffffffffffffffffffffffffffff021916908373ffffffffffffffffffffffffffffffffffffffff160217905550505060008081548092919061043b90612cb1565b919050555050505050565b60606005805480602002602001604051908101604052809291908181526020016000905b828210156107e157838290600052602060002090600802016040518061010001604052908160008201805461049e90612d28565b80601f01602080910402602001604051908101604052809291908181526020018280546104ca90612d28565b80156105175780601f106104ec57610100808354040283529160200191610517565b820191906000526020600020905b8154815290600101906020018083116104fa57829003601f168201915b5050505050815260200160018201805461053090612d28565b80601f016020809104026020016040519081016040528092919081815260200182805461055c90612d28565b80156105a95780601f1061057e576101008083540402835291602001916105a9565b820191906000526020600020905b81548152906001019060200180831161058c57829003601f168201915b505050505081526020016002820180546105c290612d28565b80601f01602080910402602001604051908101604052809291908181526020018280546105ee90612d28565b801561063b5780601f106106105761010080835404028352916020019161063b565b820191906000526020600020905b81548152906001019060200180831161061e57829003601f168201915b5050505050815260200160038201805461065490612d28565b80601f016020809104026020016040519081016040528092919081815260200182805461068090612d28565b80156106cd5780601f106106a2576101008083540402835291602001916106cd565b820191906000526020600020905b8154815290600101906020018083116106b057829003601f168201915b505050505081526020016004820180546106e690612d28565b80601f016020809104026020016040519081016040528092919081815260200182805461071290612d28565b801561075f5780601f106107345761010080835404028352916020019161075f565b820191906000526020600020905b81548152906001019060200180831161074257829003601f168201915b50505050508152602001600582015481526020016006820160009054906101000a900473ffffffffffffffffffffffffffffffffffffffff1673ffffffffffffffffffffffffffffffffffffffff1673ffffffffffffffffffffffffffffffffffffffff1681526020016007820154815250508152602001906001019061046a565b50505050905090565b60046040518060a0016040528060015481526020018481526020018581526020013373ffffffffffffffffffffffffffffffffffffffff16815260200183815250908060018154018082558091505060019003906000526020600020906007020160009091909190915060008201518160000155602082015181600101908051906020019061087a929190611dd5565b506040820151816002015560608201518160030160006101000a81548173ffffffffffffffffffffffffffffffffffffffff021916908373ffffffffffffffffffffffffffffffffffffffff1602179055506080820151816004019060036108e3929190611e5b565b505050600160008154809291906108f990612cb1565b91905055506005838154811061091257610911612d59565b5b9060005260206000209060080201600701600081548092919061093490612cb1565b9190505550505050565b606060006004805480602002602001604051908101604052809291908181526020016000905b82821015610b5957838290600052602060002090600702016040518060a0016040529081600082015481526020016001820180546109a190612d28565b80601f01602080910402602001604051908101604052809291908181526020018280546109cd90612d28565b8015610a1a5780601f106109ef57610100808354040283529160200191610a1a565b820191906000526020600020905b8154815290600101906020018083116109fd57829003601f168201915b50505050508152602001600282015481526020016003820160009054906101000a900473ffffffffffffffffffffffffffffffffffffffff1673ffffffffffffffffffffffffffffffffffffffff1673ffffffffffffffffffffffffffffffffffffffff16815260200160048201600380602002604051908101604052809291906000905b82821015610b42578382018054610ab590612d28565b80601f0160208091040260200160405190810160405280929190818152602001828054610ae190612d28565b8015610b2e5780601f10610b0357610100808354040283529160200191610b2e565b820191906000526020600020905b815481529060010190602001808311610b1157829003601f168201915b505050505081526020019060010190610a9f565b505050508152505081526020019060010190610964565b5050505090506000805b600154811015610e07573373ffffffffffffffffffffffffffffffffffffffff1660048281548110610b9857610b97612d59565b5b906000526020600020906007020160030160009054906101000a900473ffffffffffffffffffffffffffffffffffffffff1673ffffffffffffffffffffffffffffffffffffffff1603610df45760048181548110610bf957610bf8612d59565b5b90600052602060002090600702016040518060a001604052908160008201548152602001600182018054610c2c90612d28565b80601f0160208091040260200160405190810160405280929190818152602001828054610c5890612d28565b8015610ca55780601f10610c7a57610100808354040283529160200191610ca5565b820191906000526020600020905b815481529060010190602001808311610c8857829003601f168201915b50505050508152602001600282015481526020016003820160009054906101000a900473ffffffffffffffffffffffffffffffffffffffff1673ffffffffffffffffffffffffffffffffffffffff1673ffffffffffffffffffffffffffffffffffffffff16815260200160048201600380602002604051908101604052809291906000905b82821015610dcd578382018054610d4090612d28565b80601f0160208091040260200160405190810160405280929190818152602001828054610d6c90612d28565b8015610db95780601f10610d8e57610100808354040283529160200191610db9565b820191906000526020600020905b815481529060010190602001808311610d9c57829003601f168201915b505050505081526020019060010190610d2a565b5050505081525050838381518110610de857610de7612d59565b5b60200260200101819052505b8080610dff90612cb1565b915050610b63565b50819250505090565b60006001600a34610e219190612d88565b11610e61576040517f08c379a0000000000000000000000000000000000000000000000000000000008152600401610e5890612e2e565b60405180910390fd5b60005b600154811015610ebc578260048281548110610e8357610e82612d59565b5b90600052602060002090600702016002015403610ea9578180610ea590612cb1565b9250505b8080610eb490612cb1565b915050610e64565b5060005b600154811015610fa1578260048281548110610edf57610ede612d59565b5b90600052602060002090600702016002015403610f8e5760048181548110610f0a57610f09612d59565b5b906000526020600020906007020160030160009054906101000a900473ffffffffffffffffffffffffffffffffffffffff1673ffffffffffffffffffffffffffffffffffffffff166108fc8334610f619190612e7d565b9081150290604051600060405180830381858888f19350505050158015610f8c573d6000803e3d6000fd5b505b8080610f9990612cb1565b915050610ec0565b506001600660003373ffffffffffffffffffffffffffffffffffffffff1673ffffffffffffffffffffffffffffffffffffffff168152602001908152602001600020600084815260200190815260200160002060006101000a81548160ff0219169083151502179055505050565b600060011515600660003373ffffffffffffffffffffffffffffffffffffffff1673ffffffffffffffffffffffffffffffffffffffff168152602001908152602001600020600084815260200190815260200160002060009054906101000a900460ff161515036110835760019050611088565b600090505b919050565b60606004805480602002602001604051908101604052809291908181526020016000905b828210156112a657838290600052602060002090600702016040518060a0016040529081600082015481526020016001820180546110ee90612d28565b80601f016020809104026020016040519081016040528092919081815260200182805461111a90612d28565b80156111675780601f1061113c57610100808354040283529160200191611167565b820191906000526020600020905b81548152906001019060200180831161114a57829003601f168201915b50505050508152602001600282015481526020016003820160009054906101000a900473ffffffffffffffffffffffffffffffffffffffff1673ffffffffffffffffffffffffffffffffffffffff1673ffffffffffffffffffffffffffffffffffffffff16815260200160048201600380602002604051908101604052809291906000905b8282101561128f57838201805461120290612d28565b80601f016020809104026020016040519081016040528092919081815260200182805461122e90612d28565b801561127b5780601f106112505761010080835404028352916020019161127b565b820191906000526020600020905b81548152906001019060200180831161125e57829003601f168201915b5050505050815260200190600101906111ec565b5050505081525050815260200190600101906110b1565b50505050905090565b600381815481106112bf57600080fd5b90600052602060002090600602016000915090508060000154908060010180546112e890612d28565b80601f016020809104026020016040519081016040528092919081815260200182805461131490612d28565b80156113615780601f1061133657610100808354040283529160200191611361565b820191906000526020600020905b81548152906001019060200180831161134457829003601f168201915b50505050509080600201805461137690612d28565b80601f01602080910402602001604051908101604052809291908181526020018280546113a290612d28565b80156113ef5780601f106113c4576101008083540402835291602001916113ef565b820191906000526020600020905b8154815290600101906020018083116113d257829003601f168201915b50505050509080600301805461140490612d28565b80601f016020809104026020016040519081016040528092919081815260200182805461143090612d28565b801561147d5780601f106114525761010080835404028352916020019161147d565b820191906000526020600020905b81548152906001019060200180831161146057829003601f168201915b50505050509080600401805461149290612d28565b80601f01602080910402602001604051908101604052809291908181526020018280546114be90612d28565b801561150b5780601f106114e05761010080835404028352916020019161150b565b820191906000526020600020905b8154815290600101906020018083116114ee57829003601f168201915b5050505050908060050160009054906101000a900473ffffffffffffffffffffffffffffffffffffffff16905086565b6005818154811061154b57600080fd5b906000526020600020906008020160009150905080600001805461156e90612d28565b80601f016020809104026020016040519081016040528092919081815260200182805461159a90612d28565b80156115e75780601f106115bc576101008083540402835291602001916115e7565b820191906000526020600020905b8154815290600101906020018083116115ca57829003601f168201915b5050505050908060010180546115fc90612d28565b80601f016020809104026020016040519081016040528092919081815260200182805461162890612d28565b80156116755780601f1061164a57610100808354040283529160200191611675565b820191906000526020600020905b81548152906001019060200180831161165857829003601f168201915b50505050509080600201805461168a90612d28565b80601f01602080910402602001604051908101604052809291908181526020018280546116b690612d28565b80156117035780601f106116d857610100808354040283529160200191611703565b820191906000526020600020905b8154815290600101906020018083116116e657829003601f168201915b50505050509080600301805461171890612d28565b80601f016020809104026020016040519081016040528092919081815260200182805461174490612d28565b80156117915780601f1061176657610100808354040283529160200191611791565b820191906000526020600020905b81548152906001019060200180831161177457829003601f168201915b5050505050908060040180546117a690612d28565b80601f01602080910402602001604051908101604052809291908181526020018280546117d290612d28565b801561181f5780601f106117f45761010080835404028352916020019161181f565b820191906000526020600020905b81548152906001019060200180831161180257829003601f168201915b5050505050908060050154908060060160009054906101000a900473ffffffffffffffffffffffffffffffffffffffff16908060070154905088565b60606003805480602002602001604051908101604052809291908181526020016000905b82821015611b5957838290600052602060002090600602016040518060c0016040529081600082015481526020016001820180546118bc90612d28565b80601f01602080910402602001604051908101604052809291908181526020018280546118e890612d28565b80156119355780601f1061190a57610100808354040283529160200191611935565b820191906000526020600020905b81548152906001019060200180831161191857829003601f168201915b5050505050815260200160028201805461194e90612d28565b80601f016020809104026020016040519081016040528092919081815260200182805461197a90612d28565b80156119c75780601f1061199c576101008083540402835291602001916119c7565b820191906000526020600020905b8154815290600101906020018083116119aa57829003601f168201915b505050505081526020016003820180546119e090612d28565b80601f0160208091040260200160405190810160405280929190818152602001828054611a0c90612d28565b8015611a595780601f10611a2e57610100808354040283529160200191611a59565b820191906000526020600020905b815481529060010190602001808311611a3c57829003601f168201915b50505050508152602001600482018054611a7290612d28565b80601f0160208091040260200160405190810160405280929190818152602001828054611a9e90612d28565b8015611aeb5780601f10611ac057610100808354040283529160200191611aeb565b820191906000526020600020905b815481529060010190602001808311611ace57829003601f168201915b505050505081526020016005820160009054906101000a900473ffffffffffffffffffffffffffffffffffffffff1673ffffffffffffffffffffffffffffffffffffffff1673ffffffffffffffffffffffffffffffffffffffff16815250508152602001906001019061187f565b50505050905090565b600560405180610100016040528087815260200186815260200185815260200184815260200183815260200160025481526020013373ffffffffffffffffffffffffffffffffffffffff168152602001600081525090806001815401808255809150506001900390600052602060002090600802016000909190919091506000820151816000019080519060200190611bfc929190611dd5565b506020820151816001019080519060200190611c19929190611dd5565b506040820151816002019080519060200190611c36929190611dd5565b506060820151816003019080519060200190611c53929190611dd5565b506080820151816004019080519060200190611c70929190611dd5565b5060a0820151816005015560c08201518160060160006101000a81548173ffffffffffffffffffffffffffffffffffffffff021916908373ffffffffffffffffffffffffffffffffffffffff16021790555060e08201518160070155505060026000815480929190611ce190612cb1565b91905055505050505050565b60048181548110611cfd57600080fd5b9060005260206000209060070201600091509050806000015490806001018054611d2690612d28565b80601f0160208091040260200160405190810160405280929190818152602001828054611d5290612d28565b8015611d9f5780601f10611d7457610100808354040283529160200191611d9f565b820191906000526020600020905b815481529060010190602001808311611d8257829003601f168201915b5050505050908060020154908060030160009054906101000a900473ffffffffffffffffffffffffffffffffffffffff16905084565b828054611de190612d28565b90600052602060002090601f016020900481019282611e035760008555611e4a565b82601f10611e1c57805160ff1916838001178555611e4a565b82800160010185558215611e4a579182015b82811115611e49578251825591602001919060010190611e2e565b5b509050611e579190611eae565b5090565b8260038101928215611e9d579160200282015b82811115611e9c578251829080519060200190611e8c929190611dd5565b5091602001919060010190611e6e565b5b509050611eaa9190611ecb565b5090565b5b80821115611ec7576000816000905550600101611eaf565b5090565b5b80821115611eeb5760008181611ee29190611eef565b50600101611ecc565b5090565b508054611efb90612d28565b6000825580601f10611f0d5750611f2c565b601f016020900490600052602060002090810190611f2b9190611eae565b5b50565b6000604051905090565b600080fd5b600080fd5b600080fd5b600080fd5b6000601f19601f8301169050919050565b7f4e487b7100000000000000000000000000000000000000000000000000000000600052604160045260246000fd5b611f9682611f4d565b810181811067ffffffffffffffff82111715611fb557611fb4611f5e565b5b80604052505050565b6000611fc8611f2f565b9050611fd48282611f8d565b919050565b600067ffffffffffffffff821115611ff457611ff3611f5e565b5b611ffd82611f4d565b9050602081019050919050565b82818337600083830152505050565b600061202c61202784611fd9565b611fbe565b90508281526020810184848401111561204857612047611f48565b5b61205384828561200a565b509392505050565b600082601f8301126120705761206f611f43565b5b8135612080848260208601612019565b91505092915050565b600080600080608085870312156120a3576120a2611f39565b5b600085013567ffffffffffffffff8111156120c1576120c0611f3e565b5b6120cd8782880161205b565b945050602085013567ffffffffffffffff8111156120ee576120ed611f3e565b5b6120fa8782880161205b565b935050604085013567ffffffffffffffff81111561211b5761211a611f3e565b5b6121278782880161205b565b925050606085013567ffffffffffffffff81111561214857612147611f3e565b5b6121548782880161205b565b91505092959194509250565b600081519050919050565b600082825260208201905092915050565b6000819050602082019050919050565b600081519050919050565b600082825260208201905092915050565b60005b838110156121c65780820151818401526020810190506121ab565b838111156121d5576000848401525b50505050565b60006121e68261218c565b6121f08185612197565b93506122008185602086016121a8565b61220981611f4d565b840191505092915050565b6000819050919050565b61222781612214565b82525050565b600073ffffffffffffffffffffffffffffffffffffffff82169050919050565b60006122588261222d565b9050919050565b6122688161224d565b82525050565b600061010083016000830151848203600086015261228c82826121db565b915050602083015184820360208601526122a682826121db565b915050604083015184820360408601526122c082826121db565b915050606083015184820360608601526122da82826121db565b915050608083015184820360808601526122f482826121db565b91505060a083015161230960a086018261221e565b5060c083015161231c60c086018261225f565b5060e083015161232f60e086018261221e565b508091505092915050565b6000612346838361226e565b905092915050565b6000602082019050919050565b600061236682612160565b612370818561216b565b9350836020820285016123828561217c565b8060005b858110156123be578484038952815161239f858261233a565b94506123aa8361234e565b925060208a01995050600181019050612386565b50829750879550505050505092915050565b600060208201905081810360008301526123ea818461235b565b905092915050565b6123fb81612214565b811461240657600080fd5b50565b600081359050612418816123f2565b92915050565b600067ffffffffffffffff82111561243957612438611f5e565b5b602082029050919050565b600080fd5b600061245c6124578461241e565b611fbe565b9050806020840283018581111561247657612475612444565b5b835b818110156124bd57803567ffffffffffffffff81111561249b5761249a611f43565b5b8086016124a8898261205b565b85526020850194505050602081019050612478565b5050509392505050565b600082601f8301126124dc576124db611f43565b5b60036124e9848285612449565b91505092915050565b60008060006060848603121561250b5761250a611f39565b5b600061251986828701612409565b935050602084013567ffffffffffffffff81111561253a57612539611f3e565b5b6125468682870161205b565b925050604084013567ffffffffffffffff81111561256757612566611f3e565b5b612573868287016124c7565b9150509250925092565b600081519050919050565b600082825260208201905092915050565b6000819050602082019050919050565b60006125b48261222d565b9050919050565b6125c4816125a9565b82525050565b600060039050919050565b600081905092915050565b6000819050919050565b60006125f683836121db565b905092915050565b6000602082019050919050565b6000612616826125ca565b61262081856125d5565b935083602082028501612632856125e0565b8060005b8581101561266e578484038952815161264f85826125ea565b945061265a836125fe565b925060208a01995050600181019050612636565b50829750879550505050505092915050565b600060a083016000830151612698600086018261221e565b50602083015184820360208601526126b082826121db565b91505060408301516126c5604086018261221e565b5060608301516126d860608601826125bb565b50608083015184820360808601526126f0828261260b565b9150508091505092915050565b60006127098383612680565b905092915050565b6000602082019050919050565b60006127298261257d565b6127338185612588565b93508360208202850161274585612599565b8060005b85811015612781578484038952815161276285826126fd565b945061276d83612711565b925060208a01995050600181019050612749565b50829750879550505050505092915050565b600060208201905081810360008301526127ad818461271e565b905092915050565b6000602082840312156127cb576127ca611f39565b5b60006127d984828501612409565b91505092915050565b60008115159050919050565b6127f7816127e2565b82525050565b600060208201905061281260008301846127ee565b92915050565b61282181612214565b82525050565b600082825260208201905092915050565b60006128438261218c565b61284d8185612827565b935061285d8185602086016121a8565b61286681611f4d565b840191505092915050565b61287a8161224d565b82525050565b600060c0820190506128956000830189612818565b81810360208301526128a78188612838565b905081810360408301526128bb8187612838565b905081810360608301526128cf8186612838565b905081810360808301526128e38185612838565b90506128f260a0830184612871565b979650505050505050565b6000610100820190508181036000830152612918818b612838565b9050818103602083015261292c818a612838565b905081810360408301526129408189612838565b905081810360608301526129548188612838565b905081810360808301526129688187612838565b905061297760a0830186612818565b61298460c0830185612871565b61299160e0830184612818565b9998505050505050505050565b600081519050919050565b600082825260208201905092915050565b6000819050602082019050919050565b600060c0830160008301516129e2600086018261221e565b50602083015184820360208601526129fa82826121db565b91505060408301518482036040860152612a1482826121db565b91505060608301518482036060860152612a2e82826121db565b91505060808301518482036080860152612a4882826121db565b91505060a0830151612a5d60a086018261225f565b508091505092915050565b6000612a7483836129ca565b905092915050565b6000602082019050919050565b6000612a948261299e565b612a9e81856129a9565b935083602082028501612ab0856129ba565b8060005b85811015612aec5784840389528151612acd8582612a68565b9450612ad883612a7c565b925060208a01995050600181019050612ab4565b50829750879550505050505092915050565b60006020820190508181036000830152612b188184612a89565b905092915050565b600080600080600060a08688031215612b3c57612b3b611f39565b5b600086013567ffffffffffffffff811115612b5a57612b59611f3e565b5b612b668882890161205b565b955050602086013567ffffffffffffffff811115612b8757612b86611f3e565b5b612b938882890161205b565b945050604086013567ffffffffffffffff811115612bb457612bb3611f3e565b5b612bc08882890161205b565b935050606086013567ffffffffffffffff811115612be157612be0611f3e565b5b612bed8882890161205b565b925050608086013567ffffffffffffffff811115612c0e57612c0d611f3e565b5b612c1a8882890161205b565b9150509295509295909350565b612c30816125a9565b82525050565b6000608082019050612c4b6000830187612818565b8181036020830152612c5d8186612838565b9050612c6c6040830185612818565b612c796060830184612c27565b95945050505050565b7f4e487b7100000000000000000000000000000000000000000000000000000000600052601160045260246000fd5b6000612cbc82612214565b91507fffffffffffffffffffffffffffffffffffffffffffffffffffffffffffffffff8203612cee57612ced612c82565b5b600182019050919050565b7f4e487b7100000000000000000000000000000000000000000000000000000000600052602260045260246000fd5b60006002820490506001821680612d4057607f821691505b602082108103612d5357612d52612cf9565b5b50919050565b7f4e487b7100000000000000000000000000000000000000000000000000000000600052603260045260246000fd5b6000612d9382612214565b9150612d9e83612214565b9250817fffffffffffffffffffffffffffffffffffffffffffffffffffffffffffffffff0483118215151615612dd757612dd6612c82565b5b828202905092915050565b7f73656e64206d696e696d756d2031206574686572000000000000000000000000600082015250565b6000612e18601483612827565b9150612e2382612de2565b602082019050919050565b60006020820190508181036000830152612e4781612e0b565b9050919050565b7f4e487b7100000000000000000000000000000000000000000000000000000000600052601260045260246000fd5b6000612e8882612214565b9150612e9383612214565b925082612ea357612ea2612e4e565b5b82820490509291505056fea264697066735822122076c2bd12e4b3135592c9870222c649fd2ec02b16adccad3b11ddaa266bb42bc664736f6c634300080d0033",
  "immutableReferences": {},
  "source": "// SPDX-License-Identifier: MIT\r\npragma solidity >=0.4.22 <0.9.0;\r\n\r\ncontract Review {\r\n\r\n    uint userIdCounter = 0;\r\n    uint reviewIdCounter = 0;\r\n    uint productIdCounter = 0;\r\n    \r\n    struct User_{\r\n        uint id;\r\n        string name;\r\n        string password;\r\n        string amazonUsername;\r\n        string flipkartUsername;\r\n        address userAddress;\r\n    }\r\n\r\n    struct Review_ {\r\n        uint id;\r\n        string content;\r\n        uint productId;\r\n        address payable reviewedBy;\r\n        string [3] imageHash;\r\n    }\r\n\r\n    struct Product_{\r\n        string title;\r\n        string category;\r\n        string platform;\r\n        string link;\r\n        string description;\r\n        uint id;\r\n        address listedBy;\r\n        uint reviewCount;\r\n    }\r\n\r\n    User_ [] public allUsers;\r\n    Review_ [] public allReviews;\r\n    Product_[] public allProducts;\r\n    mapping(address=>mapping(uint=>bool)) unlockedProducts;\r\n    \r\n    // constructor(){\r\n    //     addUser(\"Nagargoje\", \"1234\", \"Nag\", \"Nag\");\r\n    //     addProduct(\"Apple iPhone 12 (64GB) - Blue\",\"mobile and laptops\",\"amazon\",\"https://www.amazon.in/New-Apple-iPhone-12-64GB/dp/B08L5WHFT9/ref=cm_cr_srp_d_product_top?ie=UTF8&th=1\",\"I want to buy this phone , can someone tell me about its battery life?\");\r\n    //     addReview(0,\"Worst battery performance.Iphone 11 is far better den this..In 4 hour battery will come down from 100 to 15 percent.Please dont buy this product at this price.\",\r\n    //     [\"asda\",\"sefserg\",\"srgsrg\"]\r\n    //     );\r\n    // }\r\n\r\n    function addUser(string memory _name,string memory _password,string memory _amazonUsername,string memory _flipkartUsername) public {\r\n        allUsers.push(User_(userIdCounter,_name,_password,_amazonUsername,_flipkartUsername,msg.sender));\r\n        userIdCounter++;\r\n    }\r\n\r\n    function addReview(uint _productId,string memory _description,string[3]memory  _imageHash) public {\r\n        allReviews.push(Review_(reviewIdCounter,_description,_productId,payable(msg.sender),_imageHash));\r\n        reviewIdCounter++;\r\n        allProducts[_productId].reviewCount++;\r\n    }\r\n    \r\n    function addProduct(string memory _title,string memory _category,string memory _platform,string memory _link,string memory _description) public {\r\n\r\n        allProducts.push(Product_(_title,_category,_platform,_link,_description,productIdCounter,msg.sender,0));\r\n        productIdCounter++;\r\n    }\r\n\r\n    function getAllUsers() public view returns (User_ [] memory){\r\n        return allUsers;\r\n    }\r\n\r\n    function getAllReviews() public view returns (Review_[] memory){\r\n        return allReviews;\r\n    }\r\n\r\n    function getAllProducts() public view returns (Product_[] memory){\r\n        return allProducts;\r\n    }\r\n\r\n    function getReviewsForUser() public view returns (Review_[] memory){\r\n       Review_ [] memory tempReviews = allReviews;\r\n        uint pushed = 0;\r\n        for(uint i=0;i<reviewIdCounter;i++){\r\n            if(allReviews[i].reviewedBy == msg.sender){\r\n                tempReviews[pushed] = allReviews[i];\r\n            }\r\n        }\r\n        return tempReviews;\r\n    }\r\n\r\n    function hasAccess(uint productId) public view returns (bool){\r\n        if(unlockedProducts[msg.sender][productId]==true){\r\n            return true;\r\n        } \r\n        else{\r\n            return false;\r\n        } \r\n    }  \r\n\r\n    function getAccess(uint _productId) public payable {\r\n        uint counter = 0;\r\n        require(msg.value*10>1,\"send minimum 1 ether\");\r\n        for(uint i=0;i<reviewIdCounter;i++){\r\n            if(allReviews[i].productId == _productId){\r\n                counter++;\r\n            }\r\n        }\r\n        for(uint i=0;i<reviewIdCounter;i++){\r\n            if(allReviews[i].productId == _productId){\r\n                allReviews[i].reviewedBy.transfer(msg.value/counter);\r\n            }\r\n        }\r\n        unlockedProducts[msg.sender][_productId] = true;\r\n    }\r\n}",
  "sourcePath": "C:\\Users\\sahil\\Desktop\\Blockchain mini project\\blockquora\\src\\contracts\\Review.sol",
  "compiler": {
    "name": "solc",
    "version": "0.8.13+commit.abaa5c0e.Emscripten.clang"
  },
  "schemaVersion": "3.4.6",
  "updatedAt": "2022-05-24T05:06:55.549Z",
  "networkType": "ethereum",
  "devdoc": {
    "kind": "dev",
    "methods": {},
    "version": 1
  },
  "userdoc": {
    "kind": "user",
    "methods": {},
    "version": 1
  }
}